000001AGEU CLAUDIO DA SILVA                                                           R Tales Castanho de Andrade                       00074CASA 2         Vila Monte Santo    Sao Paulo           SP08070-0050110000000000204688370000000000OMNNANTONIO FERREIRA DA SILVA                         ORMILDA MARIA DA SILVA                            0                     21081971SPSao Paulo           100000                    NN7  15052019  28062019  12082019  220420200000F000000000000000000  300920203000000000                                                  0003AUXILIAR DE ESCRITORIO                            411005102000                                                  000                                                  M000000021533718SPSSP         1609198619860511888004141500152SP  0712199013060012775  101020030
000003ANDERSON EDUARDO AVENOSO                                                        R Barao Carlos de Alfie                           00019               Vila Chuca          Sao Paulo           SP08270-4250110000000000252284730000000000CMNNMARIO AVENOSO                                     VERA LUCIA ABADE AVENOSO                          0                     04021978SPSao Paulo           100000                    NN5  15052019  28062019  12082019  230420200000F000000000000000000  300920203000000000                                                  0003AUXILIAR DE ESCRITORIO                            411005102000                                                  000                                                  M000000032198027SPSSP         1009201828728493869009455900190SP  2302199412539070770          0
000006DENISE MARTINS GUIMARAES CARDOSO                                                R Caranda                                         00150CASA 2         Campanario          Diadema             SP09931-1100110000000000409135970000000000CFNNDORIVAL APARECIDO CARDOSO                         SILVANA MARTINS GUIMARAES                         0                     18061993SPDiadema             100000                    NN7  15052019  28062019  12082019  220420200000F000000000000000000  300920203000000000                                                  0079Trad interp LIBRAS aud visual                     261425102000                                                  000                                                  M000000490847730SPSSP         1805201042954556870005020000379SP  0805201013838234773          0
000009JOSE CARLOS RIBEIRO DE CARVALHO                                                 R Sebastiao Alvares                               00313casa1          Jardim Camargo Novo Sao Paulo           SP08121-5300110000000000443863210000000000CMNNJOSE DE CARVALHO                                  NADIR RIBEIRO                                     0                     23121967SPSao Paulo           100000                    NN2  15052019  28062019  12082019  230420200000F000000000000000000  300920203000000000                                                  0003AUXILIAR DE ESCRITORIO                            411005108000                                                  000                                                  M000000024717404SPSSP         0511201610034918809008595400121SP  2409201412213536874          0
000013WAGNER GOMES DOS SANTOS                                                         R Maruins                                         00066CASA 2         Vila Carmosina      Sao Paulo           SP08270-1200110000000000443863210000000000OMNNVALTER DOS SANTOS                                 ELZA LINA GOMES DOS SANTOS                        0                     13011984SPCarapicuiba         100000                    NN6  15052019  28062019  12082019  220420200000F000000000000000000  300920203000000000                                                  0000                                                  000000104000                                                  000                                                  M000000415630952SPSSP         2407201834984512865000277000271SP  0402201913262905851          0
000015ZILDA MARIANA DE SOUZA                                                          R Jose Vaz                                        00187               Jardim Julio de CarvFerraz de VasconceloSP08534-4700110000000000467790470000000000OFNNJOSE OLIMPIO DE SOUZA                             LOURDES MARIA DE SOUZA                            0                     05091966SPSao Paulo           100000                    NN7  15052019  28062019  12082019  220420200000F000000000000000000  300920203000000000                                                  0011INSTALADOR HIDRAULICO                             724110108000                                                  000                                                  M000000018387190SPSSP         0309201327279718850009830400052SP  0501201012002358453  141220070
000016LINDAURA NUNES DOS SANTOS                                                       R Guaxupe                                         00564CASA 2         Vila Formosa        Sao Paulo           SP03416-0500110000000000443863210000000000OFNNJOSE RODRIGUES DOS SANTOS                         MELICIA NUNES DOS SANTOS                          0                     26041976MGJoaima              100000                    NN7  15052019  28062019  12082019  090520200000F000000000000000000  300920203000000000                                                  0079Trad interp LIBRAS aud visual                     261425102000                                                  000                                                  M000000525028316SPSSP         1306201203237063630002750500095MG  0202200812708764774  091120060
000017PATRICIA DA SILVA LOPES                                                         R Benedicto de Souza Branco                       01060Apto 20        Jundiapeba          Mogi das Cruzes     SP08752-0000110000000000443863210000000000CFNNJOSE CARLOS LOPES                                 MARIA LUIZA PEREIRA LOPES                         0                     03041972SPSao Paulo           100000                    NN7  15052019  28062019  12082019  120520200000F000000000000000000  300920203000000000                                                  0000                                                  000000108000                                                  000                                                  M000000248764342SPSSP         1608201017995975805003189900098SP  0906199812505911829          0
000018WASHINGTON PEREIRA DA SILVA                                                     R Vinte e Nove de Junho                           00561CASA           Vila Vermont        Itaquaquecetuba     SP08572-1200110000000000443863210000000000OMNNJURANDY DA SILVA                                  MONICA EULALIA PEREIRA                            0                     24081981PBMonteiro            100000                    NN7  18072019  31082019  31082019  100720200000F000000000000000000  300920203000000000                                                  0000                                                  000000108000                                                  000                                                  M000000044150954SPSSP         0809201030653408870001125700243SP  1002201612894620855  230919990
000024FABIO NUNES DE OLIVEIRA                                                         R Impata                                          01036               Vila Re             Sao Paulo           SP03663-0100110000000000000000000000000000OMNN                                                  VERA LUCIA NUNES DE OLIVEIRA                      0                     28021982SPSao Paulo           100000                    NN7  15102019  28112019  28112019          0000F000000000000000000  300920203000000000                                                  0000                                                  00000010 000                                                  000                                                  M000000045921326SPSSP         2806201129780753842005153100241SP  0710201121206741122          0
000031ANDRE SANTOS DA SILVA                                                           R Jose Apolonio da Silva                          00083               Jardim Recanto dos PFerraz de VasconceloSP08539-0200110000000000000000000000000000OMNNVALDEMAR NUNES DA SILVA                           MARIA ANGELA DE MIRANDA SANTOS                    0                     12101988SPSao Paulo           100000                    NN7  01122019  14012020  14012020          0000F000000000000000000  300920203000000000                                                  0000                                                  00000010 000                                                  000                                                  M000000449719741SPSSP         2209201523066396800000904000331SP  2906200916031329507          0
000035VALDIRENE PEREIRA DO NASCIMENTO                                                 R Nishio Tadasi                                   00028               Nove de Julho       Mogi das Cruzes     SP08753-7050110000000000980528170000000000OFNNJOAO JOSE PEREIRA							                          GENI TEIXEIRA DOS SANTOS							                   0                     04071974BAVitoria da Conquista100000                    NN3  02062020  16072020  30082020          0000F000000000000000000  300920203000000000                                                  0000                                                  00000010 000                                                  000                                                  M000000361367958SPSSP         1703201275003678568002171700266SP  0511200113086768850          0
000038SAMIR SOARES DE SOUZA                                                           R Manoel Alves dos Santos                         00616               Jardim Lidia        Sao Paulo           SP05862-2300110000000000443863210000000000OMNNFLORIANO SOARES SOUZA                             JOVELINA ALMEIDA DE SOUZA                         0                     30051969MSTres Lagoas         100000                    NN7  20072020  02092020  02092020          0000L000000038000000038  300920203000000000                                                  0000                                                  00000010 000                                                  000                                                  M000000622499993SPSSP         2505201647590459100005478400002MS  0112201712681513261          0
000040CLAUDIA REGINA DA SILVA ANUNCIACAO                                              R Igaro                                           00023               Jardim Nossa SenhoraJandira             SP06624-0600110000000000443863210000000000OFNN                                                  GRACINETE DA SILVA                                0                     05121972PERecife              100000                    NN7  20072020  02092020  17102020          0000F000000040000000000          0000000000                                                  0067ENCARREGADO GERAL                                 410105108000                                                  000                                                  M000000209899530SPSSP                 14070919805003459700092SP  0707201712272101943          0
000043LUCINALVA FERREIRA DOS SANTOS                                                   R Benedicto de Souza Branco                       01050APTO 21 BL B   Jundiapeba          Mogi das Cruzes     SP08752-0000110000000000442749480000000000OFNNPLINIO BISPO DOS SANTOS                           LUCIMAR FERREIRA DA SILVA                         0                     10091976BACampo Formoso       100000                    NN1  28072020  10092020  25102020          0000F000000000000000000  300920203000000000                                                  0000                                                  00000010 000                                                  000                                                  M000000905961617SPSSP         2805199627698023800000941700060SP  2808199612833848775          0
000044MAYARA KELLY FERREIRA DA SILVA                                                  R Madalena Allegranti                             00408CASA 02        Jardim Orly         Sao Paulo           SP04434-2100110000000000442749480000000000OFNNMANOEL MARIANO DA SILVA                           MARIA ELOIZA FERREIRA                             0                     29052001CEJaguaribe           100000                    NN7  10082020  23092020  07112020          0000F000000000000000000  300920203000000000                                                  0079Trad interp LIBRAS aud visual                     26142510 000                                                  000                                                  M000000643615581CESSP         0103201806678808363008442100456SP  2802201816414006301          0
000045DANILO DE SOUZA FACCHINI                                                        R Lauro de Freitas                                00365apto 53 bl b   Vila Silvia         Sao Paulo           SP03820-2700110000000000443837700000000000OMNNELISBETE NUNES DE SOUZA FACCHINI                  WALMIR FACHINI                                    0                     25071990SPSao Paulo           100000                    NN6  02092020  16102020  30112020          0000F000000000000000000  300920203000000000                                                  0003AUXILIAR DE ESCRITORIO                            41100510 000                                                  000                                                  M000000047261509SPSSP                 36724828899009053000339SP  1410200620789591361          0
000054GUILHERME FREITAS BARROS                                                        R Cornelio de Arzao                               00146               Jardim Miriam       Sao Paulo           SP08140-5500110000000000443863210000000000OMNNANTONIO CANDIDO DE BARROS                         PATRICIA FREITAS BDA SILVA                        0                     20111995SPSao Paulo           100000                    NN5  27092021  10112021  25122021          0000F000000000000000000          0000000000                                                  0027ZELADOR                                           51412010 000                                                  000                                                  M000000477283202SPSSP         1307201845964273807004016300371SP  1002201220430418498          0
000359TATIANE GONCALVES DE OLIVEIRA                                                   TV Valentim Bender                                00085               Sitio Morro Grande  Sao Paulo           SP02807-0700110000000000443863210000000000OFNNSERGIO LUIZ DA SILVA                              TEREZA GONCALVES                                  0                     08081999SPSao Paulo           100000                    NN7  29112021  12012022  26022022          0000F000000000000000000          0000000000                                                  0064AUXILIAR DE LIMPEZA                               51432010 000                                                  000                                                  M000000563143757SPSSP         2804202145355264867009578600398SP  1106201416623641298          0
001004ANDERSON GOMES DO REAL                                                          TV Bacajai                                        00073               Sitio Morro Grande  Sao Paulo           SP02807-0600110000000000443863210000000000OMNNGERALDO GOMES DO REAL                             MARIA TIBURCIO DOS SANTOS SILVA                   0                     19091991SPSao Paulo           100000                    NN7  10012022  23022022  09042022          0000F000000000000000000          0000000000                                                  0064AUXILIAR DE LIMPEZA                               514320102000                                                  000                                                  M000000494546074SPSSP         2804202141834294800003171000343SP  2804202511783005615          0
001010ELIETE AZEVEDO SANTOS                                                           R Joao Alves Amorim                               00017CASA 2         Jardim Pantanal     Sao Paulo           SP08180-6100000000000000000000000000000000CFNNGILDASIO BARBOSA DOS SANTOS                       ELEZENITA RODRIGUES DE AZEVEDO SANTOS             0                     05041982SPQueluz              100000                    NN5  07042022  21052022  21052022  060520220000L000001010000001010          0000000000                                                  0064AUXILIAR DE LIMPEZA                               51432010 000                                                  000                                                  M000000434219964SPSSP         1512202133423858800004682100284SP  2306201611690267822          0
001013ROBERTO BATISTA RIBEIRO                                                         R Doutor Alcides da Costa Vidigal                 00006VIELA 18 CASA 6Jardim Sao Paulo(ZonSao Paulo           SP08461-4700000000000000000000000000000000CMNNERCILIO BATISTARIBEIRO                            LINDAURA MARIA D JESUS                            0                     18031977SPSao Paulo           100000                    NN7  31032022  14052022  14052022  290420220000L000001013000001013          0000000000                                                  0065CONTROLADOR DE ACESSO                             51741010 000                                                  000                                                  M000000298967704SPSSP         0605201627104828869002120100180SP  0904201913016915935          0
001017POLIANA DO NASCIMENTO MOREIRA                                                   R Paraguai                                        01751FD             America             Barretos            SP14783-1710000000000000000000000000000000CFNNJOAO DA SILVA MOREIRA                             MARCIA DO NASCIMENTO ALVES                        0                     22111984MGFrutal              100000                    NN5  11042022  25052022  25052022  100520220000L000001017000001017          0000000000                                                  0062COZINHEIRO                                        51320510 000                                                  000                                                  M000000375332984MGSSP         2109201734335563850000446100131MG  2109201720635549322          0
001019ANA LUCIA DA SILVA RODRIGUES                                                    R VN 22 Walter Panissi                            00646               Conjunto HabitacionaBarretos            SP14784-7780110000000000443863210000000000CFNNJOSE ALEXANDRINO RODRIGUES                        CLELIS DIVINA DA SILVA RODRIGUES                  0                     24051982SPGuaira              100000                    NN7  11042022  25052022  25052022          0000L000001019000001019          0000000000                                                  0062COZINHEIRO                                        51320510 000                                                  000                                                  M000000470689122SPSSP         0509201431240539827007482000279SP  2902200820368484720          0
001025MARIA JOSE DA SILVA                                                             R Rio de Janeiro                                  01018CASA 1         Jardim Oratorio     Maua                SP09381-0500000000000000000000000000000000CFNN                                                  RITA OLIMPIA DA CONCEICAO DA SILVA                0                     01061968ALMata Grande         100000                    NN5  09042022  23052022  23052022  080520220000L000001025000001025          0000000000                                                  0064AUXILIAR DE LIMPEZA                               51432010 000                                                  000                                                  M000000520584430SPSSP         0207201401318937426001605000010AL  2211198919034140949          0
001027SEBASTIAO SELIO DE ALMEIDA                                                      R Professor Manoel Nogueira Padilha Sobrin        00314CASA 3         Vila Francos        Sao Paulo           SP02881-0500000000000000000000000000000000CMNNJOAO VICENTE DE ALMEIDA                           MARIA CREUZA DE JESUS ALMEIDA                     0                     30031962CEAurora              100000                    NN5  09042022  23052022  23052022  080520220000L000001027000001027          0000000000                                                  0064AUXILIAR DE LIMPEZA                               51432010 000                                                  000                                                  M000000208263093SPSSP         3008202111240142846000346800136SP  1508198412275417410          0
001030DJALMA BORGES DA SILVA                                                          R Avare                                           00099CASA 3         Jardim do Carmo     Itaquaquecetuba     SP08577-7000000000000000000000000000000000CFNNEUZEBIO BORGES DA SILVA                           AUREA FERREIRA BORGES                             0                     11081971BACaldeirao Grande    100000                    NN5  12042022  26052022  26052022  110520220000L000001030000001030          0000000000                                                  0064AUXILIAR DE LIMPEZA                               51432010 000                                                  000                                                  M000000241860635SPSSP         1110201916057117808003943300147SP  1507199112465370768          0
001031EDJANE DA SILVA SANTOS                                                          AV Ipiranga                                       00908CASA           Republica           Sao Paulo           SP01040-0000000000000000000000000000000000CFNNNILTON ANTONIO DOS SANTOS                         MARIA DAS NEVES JUSTINIANA DA SILVA SANT          0                     15041978BAJuazeiro            100000                    NN5  12042022  26052022  26052022  110520220000L000001031000001031          0000000000                                                  0064AUXILIAR DE LIMPEZA                               51432010 000                                                  000                                                  M000000304947647SPSSP         0509201825685135866002793500170SP  1111201012618911859          0
001042CLEONICE BADARO DE SOUZA                                                        R Simao Ragusa                                    00032CS A           Jardim Maggi        Sao Paulo           SP02982-1400110000000000443863210000000000CFNNJOSE BALBINO DE SOUZA                             LUZINETE FERREIRA BADARO                          0                     05091987BAGuanambi            100000                    NN5  02052022  15062022  30072022          0000L000001042000001042          0000000000                                                  0066LIDER DE LIMPEZA                                  41010510 000                                                  000                                                  M000000385618633SPSSP         0509201835552270843002111703916SP  1306201416190900225          0
001045ANDERSON FERREIRA SILVA                                                         R Manajos                                         00133               Jardim Margarida    Sao Paulo           SP08191-1100110000000000443863210000000000CMNNADEVALDO FERREIRA SILVA                           ANDREIA FERREIRA SILVA                            0                     26041989SPSao Paulo           100000                    NN7  05052022  18062022  02082022          0000L000001045000001045          0000000000                                                  0033AUXILIAR DE SERVICOS GERAIS                       51342510 000                                                  000                                                  M000000449830111SPSSP         1806201839764221858003228500302SP  0401201020415786511          0
001052LUCIANA APARECIDA MATHEUS                                                       R Araguaia                                        00030CS             Vila Lourdes        Carapicuiba         SP06397-1700110000000000443863210000000000CFNNMANOEL JOAO CUSTODIO MATHEUS                      MARIA TERTULINA MATHEUS                           0                     22031991SPOsasco              100000                    NN7  09052022  22062022  06082022          0000L000001052000001052          0000000000                                                  0066LIDER DE LIMPEZA                                  41010510 000                                                  000                                                  M000000473811248SPSSP         1709201940828812802006794600342SP  2508202020491621447          0
001053ROGERIO TRINDADE DA SILVA                                                       R Panorama II                                     00093               Jardim Maragogipe   Itaquaquecetuba     SP08580-3800000000000000000000000000000000CMNNABEL TRINDADE DA SILVA                            GENILDA BORGES DA SILVA                           0                     08061974SPSao Paulo           100000                    NN7  11052022  24062022  24062022  090620220000L000001053000001053          0000000000                                                  0064AUXILIAR DE LIMPEZA                               51432010 000                                                  000                                                  M000000581872423SPSSP         2209202088483339587884833309587SP          20387620022          0
001055IVETE CAETANO PIRES                                                             R Josue Grande                                    00103CS             Vila Marina         Sao Paulo           SP02967-1000000000000000000000000000000000CFNNMARIO CAETANO PIRES                               MARIA JOSE DO PRADO PIRES                         0                     12031955SPSao Paulo           100000                    NN7  17052022  30062022  30062022  160620220000L000001055000001055          0000000000                                                  0064AUXILIAR DE LIMPEZA                               51432010 000                                                  000                                                  M000000171750872SPSSP         0609201005418388819004880406332SP  1602201212047018937          0
001057SIRLEI DO CARMO AGUIAR                                                          R DA TORRE			                                     00051               JARDIM FONTALIS 	   Sao Paulo           SP02323-0850000000000000000000000000000000CFNNSEBASTIAO BATISTA DE AGUIAR                       ROZA DAVID DE AGUIAR                              0                     17101970SPSao Paulo           100000                    NN5  18052022  01072022  01072022  160620220000L000001057000001057          0000000000                                                  0064AUXILIAR DE LIMPEZA                               51432010 000                                                  000                                                  M000000226869234SPSSP         0805201513249899801004883000066SP  0805201512276199778          0
001059ALAN LISBOA DE SOUSA                                                            R Paixao e Fe                                     00004CS 01          Jardim Sao Carlos (ZSao Paulo           SP08062-7600110000000000443863210000000000CMNNRENATO CRUZ DE SOUSA                              JOSEFA BISPO LISBOA                               0                     05101996SPSao Paulo           100000                    NN7  23052022  06072022  20082022          0000L000001059000001059          0000000000                                                  0064AUXILIAR DE LIMPEZA                               51432010 000                                                  000                                                  M000000394985850SPSSP         1606201545683325838009110100371SP  0307201220687704450          0
001061JOSINALVA ALVES SOBRINHO                                                        R Antonio Matrone                                 00090               Jardim Maua         Maua                SP09340-4000000000000000000000000000000000CFNNMAURO ALVES SOBRINHO                              MARIA DE LOURDES ALVES                            0                     04051980PEItaiba              100000                    NN5  23052022  06072022  06072022  220620220000F000000000000000000          0000000000                                                  0064AUXILIAR DE LIMPEZA                               51432010 000                                                  000                                                  M000000561929336SPSSP         0512201335319065850003295900321SP  2711200616269554056          0
001062RITA DO CARMELO SANTOS                                                          R Peixoto Werneck                                 00703CS 1           Vila Nhocune        Sao Paulo           SP03563-1200000000000000000000000000000000CFNNLUIZ SABINO DOS SANTOS                            ELIETE SALVINO DA SILVA                           0                     06061976PERecife              100000                    NN5  20052022  03072022  03072022  190620220000F000000000000000000          0000000000                                                  0064AUXILIAR DE LIMPEZA                               51432010 000                                                  000                                                  M000000367202256SPSSP         1506201830441184847005343200380SP  0507201013788739893          0
001063ROBERTO CORREA                                                                  R Amapa                                           00495CS 2           Vila Ercilia        Itaquaquecetuba     SP08572-8000110000000000443863210000000000CMNNNASCIMENTO CORREA                                 MARIA DA SILVA                                    0                     17021957SPPoa                 100000                    NN5  23052022  06072022  20082022          0000L000001063000001063          0000000000                                                  0033AUXILIAR DE SERVICOS GERAIS                       51342510 000                                                  000                                                  M000000226050282SPSSP         2505200607833619809008252100006SP  1905200610409351536          0
001066REGINA ANGELICA DE PAULA TEIXEIRA                                               R Paulo Pereira Marques                           00016BL B APTO 22   Conjunto HabitacionaSao Paulo           SP02281-2640110000000000443863210000000000CFN NAO DECLARADO                                     MARILDA APARECIDA DE PAULA TEIXEIRA               0                     15111971SPSao Paulo           100000                    NN5  06062022  20072022  03092022          0000L000001066000001066          0000000000                                                  0064AUXILIAR DE LIMPEZA                               51432010 000                                                  000                                                  M000000220448243SPSSP         2307200912993792814003195200093SP  3005202212289207790          0
001067VERA DIANA ALVES DA SILVA                                                       AV Ernesto Augusto Lopes                          00113CS 2           Parque Vila Maria   Sao Paulo           SP02169-0300110000000000443863210000000000CFNNAUGUSTO ALVES DA SILVA                            FRANCISCA ALVES DA SILVA                          0                     18101986PISao Joao da Serra   100000                    NN7  06062022  20072022  03092022          0000L000001067000001067          0000000000                                                  0067ENCARREGADO GERAL                                 41010510 000                                                  000                                                  M000000381088911SPSSP         1811201633842015828005693200297SP  2910200220687851062          0
001073QUITERIA MARIA RODRIGUES DA SILVA                                               EST Sao Paulo-Mogi                                00159CS 4           Vila Monte Belo     Itaquaquecetuba     SP08577-0000110000000000443863210000000000CFNNJOSE MIGUEL DA SILVA                              MIRIA QUITERIA DE MARQUES                         0                     15081972ALQuebrangulo         100000                    NN5  22062022  05082022  05082022          0000L000001073000001073          0000000000                                                  0064AUXILIAR DE LIMPEZA                               51432010 000                                                  000                                                  M000000358798723SPSSP                 34665457816004861300224SP          20978850976          0
001075JANICLEIDE QUEIROZ ACIOLY                                                       R Estevam Tavares                                 00061CS 2           Parque Sao Miguel   Guarulhos           SP07260-0600110000000000443863210000000000CFNNJOAO SEVERO ACIOLY                                MARIA CARLOS DE QUEIROZ                           0                     28061986PESertania            100000                    NN5  27062022  10082022  24092022          0000L000001075000001075          0000000000                                                  0064AUXILIAR DE LIMPEZA                               51432010 000                                                  000                                                  M000000629460279SPSSP         1710201805709824488000243000098SP  0902200916262745107          0
001077TARCISO DA COSTA SILVA                                                          R VN Walter Panissi                               00326               Conjunto HabitacionaBarretos            SP14784-7780110000000000443863210000000000CMNNFRANCISCO FERREIRA DA SILVA                       MARIA DAS NEVES DA SILVA COSTA                    0                     19041993SPSao Joao da Boa Vist100000                    NN7  01072022  14082022  28092022          0000L000001077000001077          0000000000                                                  0065CONTROLADOR DE ACESSO                             51741010 000                                                  000                                                  M000000651862061SPSSP         1311201804698261180005481400041SP  2310200915005096276          0
001078MAICON FELIPE DE SOUZA SILVA                                                    R Valter Fredie Duarte                            00132               Conjunto HabitacionaBarretos            SP14787-2500110000000000443863210000000000CMNNJOSE FRANCINALDO OLIVEIRA DA SILVA                LUZIA ALVES DE SOUZA                              0                     13101999SPIgarapava           100000                    NN7  01072022  14082022  28092022          0000L000001078000001078          0000000000                                                  0065CONTROLADOR DE ACESSO                             51741010 000                                                  000                                                  M000000374355150SPSSP         0409201748347427844483474207844SP          16419428786          0
001079MONICA MARIA DOS SANTOS MORGADO                                                 R 50                                              00293               Jardim Alvorada     Barretos            SP14780-5200110000000000443863210000000000CFNNBENEDITO MARTINS MORGADO                          MARIA DE FATIMA DOS SANTOS                        0                     08031979SPBarretos            100000                    NN7  01072022  14082022  28092022          0000L000001079000001079          0000000000                                                  0065CONTROLADOR DE ACESSO                             51741010 000                                                  000                                                  M000000320887212SPSSP         1712201534468578858001382800173SP  2103199420715042828          0
001082ANA BEATRIZ MONTEIRO SILVA                                                      AV 33                                             01145               Pimenta             Barretos            SP14781-3330110000000000443863210000000000CFNNMIGUEL ROBERTO DA SILVA                           DINEIA MONTEIRO                                   0                     22051999SPBarretos            100000                    NN7  01072022  14082022  14082022          0000L000001082000001082          0000000000                                                  0065CONTROLADOR DE ACESSO                             51741010 000                                                  000                                                  M000000561637295SPSSP         2808201848967714866489677104866SP          23721585379          0
001084LETICIA SANTOS RIBEIRO DA SILVA                                                 R Cristiano de Carvalho                           00335CS B           Jardim California   Barretos            SP14781-2740110000000000443863210000000000CFNNAMAURI PAULO DOS SANTOS                           MARCIA APARECIDA DA SILVA                         0                     03111986SPBarretos            100000                    NN7  01072022  14082022  28092022          0000L000001084000001084          0000000000                                                  0065CONTROLADOR DE ACESSO                             51741010 000                                                  000                                                  M000000454027916SPSSP         0107201436271736866000526600279SP  0702200720693850951          0
001085FRANCISCO FERNANDES DA COSTA                                                    R Caracol                                         00056               Jardim Paulista     Guarulhos           SP07272-5100110000000000443863210000000000CMNNJOSE ARNOBIO FERNANDES                            ALDENORA DA COSTA FERNANDES                       0                     19101986CEMoraujo             100000                    NN5  25072022  07092022  22102022          0000L000001085000001085          0000000000                                                  0033AUXILIAR DE SERVICOS GERAIS                       51342510 000                                                  000                                                  M000000549697425SPSSP         1803201702373290340003973100056CE  3010200316225308831          0
001090FABIANA BELARMINO DA SILVA                                                      R Tenorio das Chagas                              00029CASA 01        Vila Santa TeresinhaSao Paulo           SP08247-0900000000000000000000000000000000CFNN                                                  MARIA JOSE BELARMINO DOS SANTOS                   0                     11111980                      100000                    NN4  23082022  06102022  20112022          0000L000001090000001091          0000000000                                                  0064AUXILIAR DE LIMPEZA                               51432010 000                                                  000                                                  M000000503093385SPSSP         0509201803628679419004032500339SP  2407200616021674686          0
001094JOSELIA GOMES DA SILVA                                                          R Araguaia                                        00030               Vila Lourdes        Carapicuiba         SP06397-1700000000000000000000000000000000CFNNCLARO SEVERINO DA SILVA                           ELOINA GOMES DA SILVA                             0                     30041962                      100000                    NN6  10082022  23092022  07112022          0000L000001094000001095          0000000000                                                  0064AUXILIAR DE LIMPEZA                               51432010 000                                                  000                                                  M000000237570038SPSSP         1706200220006199836553243100001PR  3010200310841021594          0
001101CARLOS ROBERTO MARTINS                                                          R Alpine                                          00111               Parque Residencial CItaquaquecetuba     SP08584-2400000000000000000000000000000000CMNNJOSE MARINHO MARTINS                              SEBASTIANA MARIA MARTINS                          0                     01111961                      100000                    NN7  24102022  07122022  21012023          0000L000001101000001102          0000000000                                                  0064AUXILIAR DE LIMPEZA                               51432010 000                                                  000                                                  M000001700040768SPSSP         0911201609517877803008945700070SP  0508200512086800284          0
001105RENATA LACERDA DE CAMARGO                                                       R Serra de Maracaju                               00167casa 2         Jardim Sydney       Sao Paulo           SP02982-2000000000000000000000000000000000CMNNCLAUDEMIR DA CRUZ DE CAMARGO                      MARIA APARECIDA LACERDA DE CAMERGO                0                     10061995                      100000                    NN4  09112022  23122022  06022023          0000L000001105000001106          0000000000                                                  0069AGENTE DE HIGIENIZACAO                            25431010 000                                                  000                                                  M000000479000141SPSSP         0904201943748531893008240800383SP  2502201516612239205          0
001111RAIMUNDO NONATO DE SOUSA                                                        V L SEIS CAMPOS MACHADO                           00100               CACHOEINHA          Sao Paulo           SP02873-0010000000000000000000000000000000CMNNANTONIO RAIMUNDO DE SOUZA                         MARIA DAS NEVES DE SOUZA                          0                     28091968                      100000                    NN5  01122022  14012023  28022023          0000L000001111000001112          0000000000                                                  0064AUXILIAR DE LIMPEZA                               51432010 000                                                  000                                                  M000000222856282SPSSP         3101201107835041871001048200106SP  0106198212331916081          0
001117LUCIANA DE SOUZA BARBOSA                                                        R Jaime Guimaraes Costa                           00009A              Jardim Sao Bento NovSao Paulo           SP05881-1500000000000000000000000000000000CFNNJOSE GERALDO BARBOSA                              MARIA LUCIA ALVES DE SOUZA                        0                     28111989                      100000                    NN5  06122022  19012023  05032023          0000L000001117000001118          0000000000                                                  0064AUXILIAR DE LIMPEZA                               51432010 000                                                  000                                                  M000000466498469SPSSP         1103202139774808800015931500387SP  0502201116420082804          0
001124BRUNA CRISTINA ALVES DA SILVA                                                   R BASILIO SALAZAR                                 00215               JARDIM NAZARETH	    Sao Paulo           SP05887-3800000000000000000000000000000000CFNNEDUARDO DA SILVA                                  ELAINE CRISTINA BERTI ALVES                       0                     20122002                      100000                    NN5  15122022  28012023  14032023          0000L000001124000001125          0000000000                                                  5143BANHEIRISTA                                       51432010 000                                                  000                                                  M000000236669564SPSSP         1705201953023632839003860800459SP  0807200421067740734          0
001125SILVANA SOUZA DOS SANTOS                                                        AV Naylor de Oliveira                             00151               Cidade Tiradentes   Sao Paulo           SP08470-8000000000000000000000000000000000CFNNJOAO CARLOS MARINHO DOS SANTOS                    MARILENE DE JESUS SOUZA                           0                     02051989                      100000                    NN4  04012023  17022023  03042023          0000L000001125000001126          0000000000                                                  0064AUXILIAR DE LIMPEZA                               51432010 000                                                  000                                                  M000000392474220BASSP         2308202141355171881004783600393SP  0508201120392188974          0
001127JOSUE LIMA ALVES                                                                TV das Laranjeiras                                00033               Chacara Tres MeninasSao Paulo           SP08090-2110000000000000000000000000000000CMNNGECINO CRISTALICIO ALVES                          ANTONIA ADALGISA PEREIRA LIMA ALVES               0                     25071976                      100000                    NN5  04012023  17022023  03042023          0000L000001127000001128          0000000000                                                  0064AUXILIAR DE LIMPEZA                               51432010 000                                                  000                                                  M000000325268071SPSSP         2606201502180497490008482500012RN  3006199412695980932          0
001130DILMA GOLCALVES DOS SANTOS                                                      R Doutor Jeronimo de Campos Freire                00028               Jardim Parque MorumbSao Paulo           SP05712-0300000000000000000000000000000000CFNNDAVID IRINEU DOS SANTOS                           DINORA GONCALVES DOS SANTOS                       0                     21021977                      100000                    NN5  23012023  08032023  22042023          0000L000001130000001131          0000000000                                                  0064AUXILIAR DE LIMPEZA                               51432010 000                                                  000                                                  M000000525497742SPSSP         1411201900607195592002954000325SP  0706200513414200855          0
001131MARIANA GLORIA FRANCO DA SILVA                                                  R Doutor Savigny de Almeida Prado                 00175               Nogueira            Barretos            SP14783-2650000000000000000000000000000000CFNNSERGIO DE JESUS                                   APARECIDA DOS SANTOS ALVES                        0                     27011997                      100000                    NN5  25012023  10032023  24042023          0000L000001131000001132          0000000000                                                  0073INTERPRETE DE LINGUAS                             26142510 000                                                  000                                                  M000000499080324SPSSP         2110201543655754817002204000391SP  1005201720124597569          0
001134REGINALDO RIBEIRO SILVA JUNIOR                                                  R Doutor Jeronimo de Campos Freire                00020               Jardim Parque MorumbSao Paulo           SP05712-0300000000000000000000000000000000CMNNREGINALDO RIBEIRO SILVA                           ISABEL CRISTINA DOS SANTOS                        0                     04021981                      100000                    NN5  08022023  24032023  08052023          0000L000001134000001135          0000000000                                                  0064AUXILIAR DE LIMPEZA                               51432010 000                                                  000                                                  M000000525490425SPSSP         1303201997831026568001277900337SP  1111201120130179870          0
001137NILO HENRIQUE FORTUNATO DA SILVA                                                R Jose Mascarenhas                                00115               Vila Matilde        Sao Paulo           SP03515-0000000000000000000000000000000000CMNNNILO RODRIGUES DA SILVA                           ZENAIDE FORTUNATO DA SILVA                        0                     05121979                      100000                    NN5  15022023  31032023  15052023          0000L000001137000001138          0000000000                                                  0065CONTROLADOR DE ACESSO                             51741010 000                                                  000                                                  M000007074692059RSSSP         1612200398333976034132559400040SP  1408201212608356690          0
001139VIVIANE ALEXANDRE VALERIANO                                                     R dos Navegantes                                  00465               Chacara Santa CeciliItapevi             SP06655-6400000000000000000000000000000000CFNNEDIR VALERIANO                                    IVONE ALEXANDRE DA SILVA VALERIANO                0                     24011984                      100000                    NN4  22022023  07042023  22052023          0000L000001139000001140          0000000000                                                  0069AGENTE DE HIGIENIZACAO                            25431010 000                                                  000                                                  M000000401845722SPSSP         1402201830696748878306967408878SP          13600735771          0
001140MARCELO DE JESUS SOUZA                                                          AV AVENIDA QUITERIA LAURA		                       00505               Cidade Miguel Badra Suzano              SP08690-0100000000000000000000000000000000CMNNJULIAO BARBOSA DE SOUZA                           ILDA MARIA DE JESUS SOUZA                         0                     06091986SPSao Paulo           100000                    NN5  09032023  22042023  06062023          0000L000001140000001141          0000000000                                                  0064AUXILIAR DE LIMPEZA                               51432010 000                                                  000                                                  M000000958221359SPSSP         21082020349840268479349768001-0SP          12910089071          0
001141DENIS ALMEIDA NERES DE SANTANA                                                  R Denis Chaudet                                   00007B              Jardim Dracena      Sao Paulo           SP05528-2200000000000000000000000000000000CMNNJOSE LUIZ NERES DE SANTANA                        MARIA ROSA DE ALMEIDA                             0                     19021986                      100000                    NN5  09032023  22042023  06062023          0000L000001141000001142          0000000000                                                  0064AUXILIAR DE LIMPEZA                               51432010 000                                                  000                                                  M000000446692992SPSSP         1808202235719945822003990600308SP  1604200613657214851          0
001143MARIA PAULO RODRIGUES                                                           R Professor Manoel Nogueira Padilha Sobrin        00314               Vila Francos        Sao Paulo           SP02881-0500000000000000000000000000000000CFNNFRANCISCO PASTORINO RODRIGUES                     SINFOROZA PAULO RODRIGUES                         0                     04081972                      100000                    NN5  16032023  29042023  13062023          0000L000001143000001144          0000000000                                                  0066LIDER DE LIMPEZA                                  41010510 000                                                  000                                                  M000000379895912SPSSP         1402202026951374864006234800022SP  0502198812621700774          0
001149BEATRIZ FERREIRA TERTO                                                          R imirim                                          01271               Jardim do Campo     Sao Paulo           SP08440-2300000000000000000000000000000000CFNNMANOEL PEDRO TERTO                                ANA ALICE GUILHERME                               0                     06051995                      100000                    NN7  14032023  27042023  11062023          0000L000001149000001150          0000000000                                                  0065CONTROLADOR DE ACESSO                             51741010 000                                                  000                                                  M000000039367793SPSSP         2710202137095113807008642400371SP  1206201820114691945          0
001150RODRIGO CASTRO DE OLIVEIRA                                                      R Serra do Ouro Branco                            00012               Jardim Maraba       Sao Paulo           SP08270-3300000000000000000000000000000000CMNNANTONIO GERALDO VIEIRA DE OLIVEIRA                MARIA DE FATIMA DE CASTRO OLIVEIRA                0                     19081986                      100000                    NN7  13042023  27052023  11072023          0000L000001150000001151          0000000000                                                  0065CONTROLADOR DE ACESSO                             51741010 000                                                  000                                                  M000000423751591SPSSP         2609201936002561811002931700284SP  2304200120391664616          0
001151ANTONIO VIEIRA DO NASCIMENTO FILHO                                              R Capinharos                                      00096               Jardim Margarida    Sao Paulo           SP08191-1200000000000000000000000000000000CMNNANTONIO VIEIRA DO NASCIMENTO FILHO                MARIA GESSI EVANGELISTA VIEIRA                    0                     23041970                      100000                    NN5  25052023  08072023  22082023          0000L000001151000001152          0000000000                                                  0064AUXILIAR DE LIMPEZA                               51432010 000                                                  000                                                  M000000199560869SPSSP         3007201812689528851009767600064SP  0808201812275473701          0
001157PRISCILA CALISTO BEZERRA SILVA                                                  R Barra do Tibaji                                 00948               Bom Retiro          Sao Paulo           SP01128-0000000000000000000000000000000000CFNNMANOEL CALISTO BEZERRA                            MARIA SALETE PINHEIRO BEZERRA                     0                     20051987                      100000                    NN6  19062023  02082023  16092023          0000L000001157000001158          0000000000                                                  0064AUXILIAR DE LIMPEZA                               51432010 000                                                  000                                                  M000000557906404SPSSP         1907202207122815412600936400010SP  2006201812939101649          0
001160CAMILA PESSOA DE SOUSA                                                          R Adriano Theodosio Serra                         00122               Vila Gomes          Sao Paulo           SP05589-1000000000000000000000000000000000CFNNFRANCOALDO DIAS DE SOUSA                          RAIMUNDA RITA RICARDO PESSOA                      0                     10062000                      100000                    NN7  17072023  30082023  14102023          0000L000001160000001161          0000000000                                                  0023AUXILIAR ADMINISTRATIVO                           41101010 000                                                  000                                                  M000000526589723SPSSP                 50781890845507818900845SP          23742674397          0
001161CAROLINE PEREIRA DE PAULO                                                       R Sebastiao Martins                               00720               Jardim Bonfiglioli  Sao Paulo           SP05595-0100000000000000000000000000000000CMNNDIRCEU APARECIDO DE PAULO                         LUCIA MARIA ALVES PEREIRA DE PAULO                0                     05061995                      100000                    NN7  17072023  30082023  14102023          0000L000001161000001162          0000000000                                                  0032RECEPCIONISTA                                     42210510 000                                                  000                                                  M000000452314641SPSSP                 34508593828345085903828SP          21042585719          0
001162THAYNA PEREIRA MARQUES OLIVEIRA DOS SANTOS                                      R Alessandro Bibiena                              00359               Jardim Jaqueline    Sao Paulo           SP05529-0200000000000000000000000000000000CFNNWAGNER MOREIRA MARQUES                            VILMA PEREIRA MOREIRA MARQUES                     0                     09051998                      100000                    NN7  17072023  30082023  14102023          0000L000001162000001163          0000000000                                                  0032RECEPCIONISTA                                     42210510 000                                                  000                                                  M000000425566742SPSSP                 47926545805007417800398SP  2201201423686743031          0
001165ANA CLAUDIA DAMASCO                                                             R Alambari                                        00067               Vila Baruel         Sao Paulo           SP02522-0600000000000000000000000000000000CFNNANTONIO CARLOS DAMASCO                            MARIA JOSE DAMASCO                                0                     30031981                      100000                    NN9  17072023  30082023  14102023          0000L000001165000001166          0000000000                                                  0074ASSISTENTE SOCIAL                                 25160510 000                                                  000                                                  M000000334883234SPSSP                 29602973854296029703854SP          12916144899          0
001166MARCELA MARTINS VENTURINI                                                       R Jose Romano                                     00075               Vila Gomes Cardim   Sao Paulo           SP03322-0400000000000000000000000000000000CFNNMARCOS VENTURINI                                  MARCIA MARTINS SILVA VENTURINI                    0                     24051984                      100000                    NN7  17072023  30082023  14102023          0000L000001166000001167          0000000000                                                  0023AUXILIAR ADMINISTRATIVO                           41101010 000                                                  000                                                  M000000286074175SPSSP         2709201731620030837316200300837SP          13221011856          0
001167LILIANE DA COSTA DIAS                                                           AV Deputado Cantidio Sampaio                      00000               Vila Souza          Sao Paulo           SP02860-0010000000000000000000000000000000CFNNFRANCISCO DIAS                                    ERANDIR FELIX DA COSTA DIAS                       0                     09021997                      100000                    NN7  17072023  30082023  14102023          0000L000001167000001168          0000000000                                                  0032RECEPCIONISTA                                     42210510 000                                                  000                                                  M000000399597372SPSSP         2210201845177583899451775803899SP          26785215720          0
001168ISMAEL VITOR JESUS DOS SANTOS                                                   R Carmila                                         00030               Vila Itaim          Sao Paulo           SP08190-4800000000000000000000000000000000CMNNANTONIO ALVES DOS SANTOS                          CORALI MARIA DE JESUS DOS SANTOS                  0                     15052004                      100000                    NN5  17072023  30082023  14102023          0000L000001168000001169          0000000000                                                  0033AUXILIAR DE SERVICOS GERAIS                       51342510 000                                                  000                                                  M000000544230929SPSSP         2511202053683845805536838405805SP          16337555784          0
001170APARECIDA CESARIO ROCHA SANTOS                                                  AV Deputado Cantidio Sampaio                      03707               Vila Souza          Sao Paulo           SP02860-0010000000000000000000000000000000CFNNTOLENTINO CESARIO ROCHA                           JOSEFA FRANCISCA ROCHA                            0                     02051967                      100000                    NN7  21072023  03092023  18102023          0000L000001170000001171          0000000000                                                  0064AUXILIAR DE LIMPEZA                               51432010 000                                                  000                                                  M000000382941603SPSSP         1111201400295244666002952404666SP          11685086351          0
001173LUZIA DE JESUS TEIXEIRA                                                         R Herbert Spencer                                 00226               Paraisopolis        Sao Paulo           SP05663-0100000000000000000000000000000000CFNN                                                  MARIA DE JESUS TEIXEIRA                           0                     04051975                      100000                    NN5  24072023  06092023  21102023          0000L000001173000001174          0000000000                                                  0064AUXILIAR DE LIMPEZA                               51432010 000                                                  000                                                  M000000298430587SPSSP         1707201525472996821006467700234SP  0611201112546044305          0
001174SELMA DE SOUZA SANTOS SODRE                                                     AV Jose Herculano Goncalves                       00201               Residencial Santa RiBarretos            SP14787-1210000000000000000000000000000000CFNNJOSE MESSIAS DOS SANTOS                           NADIR DE SOUZA SANTOS                             0                     18061974                      100000                    NN4  25072023  07092023  22102023          0000L000001174000001175          0000000000                                                  0060AUXILIAR DE COZINHA                               51350510 000                                                  000                                                  M000000255352281SPSSP         1603201714318630846003257900247SP  0405199812925688898          0
001175ROGERIO SEVERINO LOPES                                                          R Jose Ginefra Junior                             00110               Jardim Panorama     Monte Mor           SP13196-0820000000000000000000000000000000CMNNMOACIR LOPES                                      MARIA DE AVILA LOPES                              0                     16031984                      100000                    NN9  07082023  20092023  04112023          0000L000001175000001176          0000000000                                                  0076AUDIODESCRITOR                                    26143010 000                                                  000                                                  M000000303817860SPSSP         1604200731154403831005328300246SP  1906200426864388415          0
001177ANA PAULA DALTRO FIGUEIREDO                                                     R Catarina Bilotta Righetto                       00069               Jardim Terras de SanHortolandia         SP13185-5530000000000000000000000000000000CFNNPAULO ANTONIO DOS SANTOS                          NADIR DALTRO DOS SANTOS                           0                     25111977                      100000                    NN9  07082023  20092023  04112023          0000L000001177000001178          0000000000                                                  0079Trad interp LIBRAS aud visual                     26142510 000                                                  000                                                  M000000388882530SPSSP         2012201800019649509007236500248SP          12894580268          0
001178ADILENE SOARES DE ARAUJO ANDRADE                                                R Aster                                           00518               Jardim Sao SebastiaoHortolandia         SP13187-1650000000000000000000000000000000CFNNARNALDO MENDES DE ARAUJO                          SIMONE JULIA SOARES DE ARAUJO                     0                     05061979                      100000                    NN9  17082023  30092023  14112023          0000L000001178000001179          0000000000                                                  0075PSICOPEDAGOGO                                     25150510 000                                                  000                                                  M000000337711161SPSSP         0507199531436381843314363801843SP          19013308611          0
001179MARIA PAULA MOMENTI BERGO                                                       R Doutor Savigny de Almeida Prado                 00232ap 17 bl 02    Nogueira            Barretos            SP14783-2650000000000000000000000000000000CFNNJOSE CARLOS BERGO                                 MARINETE CRISTINA MOMENTI BERGO                   0                     25012000                      100000                    NN5  15082023  28092023  12112023          0000L000001179000001180          0000000000                                                  0077TEC APOIO A  ESTUDANTE DEFICIE                    23922010 000                                                  000                                                  M000000571782772SPSSP         1708202149039442800004187300363SP          27244765687          0
001181MARIA APARECIDA DA SILVA                                                        AV Thomaz Antonio Guerino                         00406               Jardim Zelia        Itaquaquecetuba     SP08575-0600000000000000000000000000000000CFNNMIGUEL JOSE DA SILVA                              MARIA QUITERIA DE MATOS SILVA                     0                     10081977                      100000                    NN2  28082023  11102023  25112023          0000L000001181000001182          0000000000                                                  0064AUXILIAR DE LIMPEZA                               51432010 000                                                  000                                                  M000000361745278SPSSP         1508202229674579818004861200224SP  2101201616524465416          0
001192SOLANGE PEREIRA DE ALMEIDA                                                      R Alfredo de Melo                                 00820               Vila Itaim          Sao Paulo           SP08190-2900000000000000000000000000000000CFNNJOSE FRANCISCO PEREIRA DE ALMEIDA                 MARIA JOSE DE ALMEIDA                             0                     22061982                      100000                    NN6  18092023  01112023  16122023          0000L000001192000001193          0000000000                                                  0069AGENTE DE HIGIENIZACAO                            25431010 000                                                  000                                                  M000000444469461SPSSP         0906201522409422829008465900267SP  1006201316612346087          0
001195ALISSON SANCHES DE OLIVEIRA                                                     R Raquel Magalhaes Alves                          00136CS A           Jardim Rosa         Francisco Morato    SP07991-0200000000000000000000000000000000CMNNCARLOS GONCALVES DE OLIVEIRA                      ARCELINA SANCHES MARCAL DE OLIVEIRA               0                     27061995                      100000                    NN6  27092023  10112023  25122023          0000L000001195000001196          0000000000                                                  0064AUXILIAR DE LIMPEZA                               51432010 000                                                  000                                                  M000000421756950SPSSP                 45018452870006145100459SP          20029792090          0
001196MARCIA FARIA DE OLIVEIRA                                                        R Vicente Lombardi                                00373               Vila Santa Edwirges Sao Joao da Boa VistSP13874-2270000000000000000000000000000000CFNNMURILO NORONHA DA FONSECA                         ANA MARIA LEOPOLDINO FARIA                        0                     20091981                      100000                    NN7  02102023  15112023  30122023          0000L000001196000001197          0000000000                                                  0078MONITOR DE INCLUSAO                               23922010 000                                                  000                                                  M000000042490617SPSSP         1104201322143129866008835100244SP  1708199912715334259          0
001199CLEVERTON RAFAEL MOISES DE SOUSA                                                R VN 24 - Mairleide Maria de Brito                00673               Conjunto HabitacionaBarretos            SP14784-7760000000000000000000000000000000CMNNJOAO EDUARDO MOISES DA CUNHA                      IRACEMA FERNANDES DE SOUSA                        0                     11091991                      100000                    NN9  10102023  23112023  07012024          0000L000001199000001200          0000000000                                                  0078MONITOR DE INCLUSAO                               23922010 000                                                  000                                                  M000000064048338SPSSP         1810201804252430364299107600050SP  1602201616353003081          0
001202FERNANDA DE SOUZA ROCHA                                                         R Joao Pedro Ribeiro                              00040               Vila Capela         Sao Paulo           SP04415-1700000000000000000000000000000000CFNNJOSE FRANCISCO ROCHA                              MARIA DE LOURDES SOUZA ROCHA                      0                     27031988                      100000                    NN6  16102023  29112023  13012024          0000L000001202000001203          0000000000                                                  0064AUXILIAR DE LIMPEZA                               51432010 000                                                  000                                                  M000000035338222SPSSP         0903201840546798896008489100316SP  1911200413343478775          0
001204MARIA LUCILENE DA MOTA                                                          R dos Juvas                                       00088               Santa Amelia        Sao Paulo           SP04473-2500000000000000000000000000000000CFNNFRANCISCO DOMINGOS DA MOTA                        MARIA DA PENHA MATOS MOTA                         0                     13101968                      100000                    NN7  16102023  29112023  13012024          0000L000001204000001205          0000000000                                                  0069AGENTE DE HIGIENIZACAO                            25431010 000                                                  000                                                  M000000178107001SPSSP         1703202318302817805005601300033SP  2001201516416252148          0
001205WELINGTON MOREIRA GUIMARAES                                                     R Pedro Armani                                    00132               Jardim Leticia      Sao Paulo           SP05820-2200000000000000000000000000000000CMNNJOSE HELIO ARANHA GUIMARAES                       ANDREA SANTOS MOEIRA                              0                     16101993                      100000                    NN7  16102023  29112023  13012024          0000L000001205000001206          0000000000                                                  0069AGENTE DE HIGIENIZACAO                            25431010 000                                                  000                                                  M000000425700732SPSSP         2502201545099317863009483300396SP  2811201121069116515          0
001206WILLIANS ROSA BERTOLINO DA SILVA                                                R Diamantino Matheus                              00056               Vila Francos        Sao Paulo           SP02880-0300000000000000000000000000000000CMNNJOSE BERTOLINO DA SILVA                           MARIA JOSE ROSA                                   0                     09071981                      100000                    NN7  16102023  29112023  13012024          0000L000001206000001207          0000000000                                                  0033AUXILIAR DE SERVICOS GERAIS                       51342510 000                                                  000                                                  M000000337541346SPSSP         1302201930334981832001382800230SP          13094736857          0
001210RITA DE CASSIA DA SILVA                                                         R Aurora Maria                                    00095casa 1         Jardim Boa Vista (ZoSao Paulo           SP05832-2200000000000000000000000000000000CFNN                                                  ANGELITA QUITERIA DA SILVA                        0                     06011967                      100000                    NN7  24102023  07122023  21012024          0000L000001210000001211          0000000000                                                  0069AGENTE DE HIGIENIZACAO                            25431010 000                                                  000                                                  M000000169767784SPSSP                 10647746875007484100030SP  0108200312067845812          0
001213RENATA FERRAZ DA SILVA                                                          AV 41                                             01960               Jardim Alvorada     Barretos            SP14780-5370000000000000000000000000000000CFNNJOSE CARLOS DA SILVA                              FRANCISCA FERRAZ DA SILVA                         0                     24021979                      100000                    NN6  23102023  06122023  20012024          0000L000001213000001214          0000000000                                                  0060AUXILIAR DE COZINHA                               51350510 000                                                  000                                                  M000000295677478SPSSP         0411201727854535817000730400173SP  1006200212492644601          0
001216LUIZ CARLOS DE CAMPOS JUNIOR                                                    R Doutor Antonio Olimpio                          01070               Nova Clementina     Barretos            SP14781-3630000000000000000000000000000000CMNNLUIZ CARLOS DE CAMPOS                             NATALINA EVANGELISTA DE  OLIVEIRA CAMPOS          0                     24011990                      100000                    NN7  02102023  15112023  30122023          0000L000001216000001217          0000000000                                                  0065CONTROLADOR DE ACESSO                             51741010 000                                                  000                                                  M000000046342220SPSSP                 38111360894381113600894SP          20636223226          0
001217NATALIA MOREIRA FRANCELINO DOS SANTOS                                           R Raul Seixas                                     00016               Vila Roseira II     Sao Paulo           SP08466-0100000000000000000000000000000000CFNNABSALAO FRANCELINO DOS SANTOS                     ANA LUCIA MOREIRA DA SILVA                        0                     19121991                      100000                    NN7  01112023  15122023  29012024          0000L000001217000001218          0000000000                                                  0064AUXILIAR DE LIMPEZA                               51432010 000                                                  000                                                  M000000480905216SPSSP         1509201442812955856001880700377SP  0303201016568712494          0
001222SILVANIA LUIZ DOS SANTOS                                                        R Davinopolis                                     00177casa a         Jardim Paqueta (ZonaSao Paulo           SP02952-1300000000000000000000000000000000CFNNMANOEL LUIZ DOS SANTOS                            ELVIRA VIEIRA DOS SANTOS                          0                     26091976                      100000                    NN7  16102023  29112023  13012024          0000L000001222000001223          0000000000                                                  0064AUXILIAR DE LIMPEZA                               51432010 000                                                  000                                                  M000000393697526SPSSP                 33312645808005126000323SP          16617912242          0
001223JOSEANE DE LIMA SILVA                                                           AV Doutor Francisco Munhoz Filho                  01440CS 1           Cidade Lider        Sao Paulo           SP08280-0010000000000000000000000000000000CFNNCICERO VICENTE DA SILVA                           ZULEIDE IZABEL DE LIMA SILVA                      0                     25091983                      100000                    NN4  09112023  23122023  06022024          0000L000001223000001224          0000000000                                                  0066LIDER DE LIMPEZA                                  41010510 000                                                  000                                                  M000000441901840SPSSP         2112201634537973889345379703889SP          13774078814          0
001226JOSEFA DIJAILMA SANTOS FIGUEREDO                                                R das Goiabeiras                                  00000               Paraisopolis        Sao Paulo           SP05661-0400000000000000000000000000000000CFNNDAVID FRANCISCO FIGUEREDO                         JOSEFA DOS SANTOS FIGUEREDO                       0                     09081984                      100000                    SN5  01122023  14012024  28022024          0000L000001126000001127          0000000000                                                  0069AGENTE DE HIGIENIZACAO                            254310108000                                                  000                                                  M000000005030964PBSSP         0707202205623236430006598800019RN  2508200411685934123          0
001227IRIS REGINA LIMA MARTINS                                                        R Antonio Piccarolo                               00013               Jardim Recanto VerdeSao Paulo           SP02364-0110000000000000000000000000000000OFNNANTONIO MARTINS SILVA                             ORNELINA LIMA MARTINS                             0                     09051968                      100000                    NN7  18122023  31012024  16032024          0000L000001227000001228          0000000000                                                  0064AUXILIAR DE LIMPEZA                               51432010 000                                                  000                                                  M000000218861266SPSSP         2311202314881025899004125600091SP  0903201016268505167          0
001230DHINATAS FERNANDES DOS SANTOS                                                   R Jacaranda                                       00028casa 4         Jardim Ipe          Maua                SP09390-4800000000000000000000000000000000OMNNDJALMA CUSTODIO DOS SANTOS                        ERITANIA BATISTA FERNANDES                        0                     28082000                      100000                    NN6  18122023  31012024  16032024          0000L000001230000001231          0000000000                                                  0064AUXILIAR DE LIMPEZA                               51432010 000                                                  000                                                  M000000543253119SPSSP         3011202346178985819005454000427SP  0703201720487818878          0
001235LEOSANDRA DA SILVA TENORIO                                                      R Harry Danhenberg                                01340               Vila Carmosina      Sao Paulo           SP08270-0100000000000000000000000000000000OFNNSEBASTIAO VICENTE DA SILVA                        JOSEFA SABINO VICENTE DA SILVA                    0                     30121977                      100000                    NN5  15012024  28022024  13042024          0000L000001135000001136          0000000000                                                  0064AUXILIAR DE LIMPEZA                               51432010 000                                                  000                                                  M000000537411616SPSSP         3001202203462873407001682600016AL  1207199620938554780          0
001240VALMIR DA SILVA CAETANO                                                         R Tres                                            00166               Condominio ResidenciBarretos            SP14781-5180000000000000000000000000000000OMNNVALTER CAETANO                                    OLIMPIA DA SILVA CAETANO                          0                     21021977                      100000                    NN7  29012024  13032024  27042024          0000L000001240000001241          0000000000                                                  0080OFICIAL DE MANUTENCAO PREDIAL                     51432510 000                                                  000                                                  M000000280150738SPSSP         0310201417552008890001339400141SP  2005200812457857718          0
001246GABRIEL APARECIDO DOS SANTOS CANDIDO                                            R Tapajonia                                       00057fundos         Jardim Margarida    Sao Paulo           SP08191-1350000000000000000000000000000000OMNNAPARECIDO NOGUEIRA CANDIDO                        MARIA DA PURIFICACAO DOS SANTOS                   0                     02101996                      100000                    NN5  08022024  23032024  07052024          0000L000001246000001247          0000000000                                                  0064AUXILIAR DE LIMPEZA                               51432010 000                                                  000                                                  M000000054423585SPSSP         1409202246306689850005415100402SP  0612201215354630227          0
001247JOSE ANTONIO LIMA                                                               R Rio do Sono                                     00053               Jardim Margarida    Sao Paulo           SP08191-0700000000000000000000000000000000OMNNRAIMUNDO PEREIRA LIMA                             LUCILIA SILVA                                     0                     15041968                      100000                    NN5  08022024  23032024  07052024          0000L000001247000001248          0000000000                                                  0064AUXILIAR DE LIMPEZA                               51432010 000                                                  000                                                  M000000187950428SPSSP         0804201910057912874009099900063SP  2203201612252476089          0
001249MONALYSA VITORIA ALVES                                                          R Nossa Senhora Aparecida                         00030a              Jardim Felicidade (ZSao Paulo           SP02326-1050000000000000000000000000000000OFNN                                                  MARCIA MARIA ALVES                                0                     19052002                      100000                    NN5  08022024  23032024  07052024          0000L000001249000001250          0000000000                                                  0064AUXILIAR DE LIMPEZA                               51432010 000                                                  000                                                  M000000609224360SPSSP         1202201612563284481952501300050AL  3005201616641296211          0
001253NATANAEL DOMINGOS SILVA BEZERRA                                                 RUA OMAR SFORCINI                                 01074               CONJ H A BALBO	     Jaborandi           SP14775-0000000000000000000000000000000000OMNNMARCY FERREIRA BEZERRA                            LEIDIANE RODRIGUES DA SILVA                       0                     25122005                      100000                    NN7  19022024  03042024  18052024          0000L000001253000001254          0000000000                                                  0033AUXILIAR DE SERVICOS GERAIS                       51342510 000                                                  000                                                  M000000606051144SPSSP         2812202350387465863503874605863SP          16851079241          0
001254ANDRE QUIRINO DUARTE                                                            R Melchior Giola                                  00102               Paraisopolis        Sao Paulo           SP05664-0000000000000000000000000000000000OMNNIVAN PEREIRA DUARTE                               LINDALVA QUIRINO TORRES                           0                     11121988                      100000                    NN4  21022024  05042024  20052024          0000L000001254000001255          0000000000                                                  0033AUXILIAR DE SERVICOS GERAIS                       51342510 000                                                  000                                                  M000000448771445SPSSP         2312202236546173875004231100377SP  1801201620391173558          0
001255ITATISMARA FERNANDA DOS SANTOS                                                  R Harry Danhenberg                                01340               Vila Carmosina      Sao Paulo           SP08270-0950000000000000000000000000000000OFNN                                                  MARIA DE FATIMA DOS SANTOS                        0                     14011987                      100000                    NN4  21022024  05042024  20052024          0000L000001255000001256          0000000000                                                  0064AUXILIAR DE LIMPEZA                               51432010 000                                                  000                                                  M000000394280040SPSSP         2709202236917398810008617300323SP  1111201516242830559          0
001257LILIAN APARECIDA SILVA                                                          R Geracina                                        00106               Vila Monte Santo    Sao Paulo           SP08062-0600000000000000000000000000000000OFNNEDSON SILVA                                       IRACEMA GONCALVES FREDIANI SILVA                  0                     19041981                      100000                    NN6  04032024  17042024  01062024          0000L000001257000001258          0000000000                                                  0064AUXILIAR DE LIMPEZA                               51432010 000                                                  000                                                  M000000248178179SPSSP         2312200929540179882007838800213SP  1910200612596454930          0
001258LUIZA DA SILVA ANUNCIACAO                                                       R Maximino Ghedini                                00078               Jardim Gabriela I   Jandira             SP06624-2800000000000000000000000000000000OFNNPAULO ALEXANDRE DE ANUUNCIACAO                    CLAUDIA REGINA DA SILVA                           0                     08032004                      100000                    NN8  26022024  10042024  25052024          0000L000001258000001259          0000000000                                                  0062COZINHEIRO                                        51320510 000                                                  000                                                  M000000578248232SPSSP         1908202347359642825007519600444SP  2105201816511199313          0
001259GILMAR LUIZ QUITO                                                               R Andre Petroucic                                 00189               Zequinha Amendola   Barretos            SP14781-2040000000000000000000000000000000OMNNOSVALDO LUIZ QUITO                                LAZARA GERALDO QUITO                              0                     25091958                      100000                    NN6  27022024  11042024  26052024          0000L000001259000001260          0000000000                                                  0081auxiliar de agropecuaria                          61100510 000                                                  000                                                  M000000132402385SPSSP         1206201502020848848000144000610SP  1812200012013062755          0
001261MARIA HELENA REGINA DE SOUZA                                                    R Osorio Franco Vilhena                           01099BL C TOR B AP 2Vila Nova Curuca    Sao Paulo           SP08030-5900000000000000000000000000000000OFNN                                                  SONIA REGINA DE SOUZA                             0                     25091983                      100000                    NN6  04032024  17042024  01062024          0000L000001261000001262          0000000000                                                  0069AGENTE DE HIGIENIZACAO                            25431010 000                                                  000                                                  M000000352416415SPSSP         2703201938398909854383989009854SP          20743560080          0
001264INGRIDY SANTOS ROSA                                                             R Bebedouro                                       00160               Chacaras Selva      Itapevi             SP06654-5650000000000000000000000000000000OFNNROBERTO SOARES ROSA                               ELIANE DE OLIVEIRA SANTOS ROSA                    0                     18032004                      100000                    NN6  07032024  20042024  04062024          0000L000001264000001265          0000000000                                                  0060AUXILIAR DE COZINHA                               51350510 000                                                  000                                                  M000000574141194SPSSP         0411202252579381899525793801899SP          23755798502          0
001265MATHEUS SOUZA SILVA                                                             R Breno Bersa                                     00887               Jardim Almeida PradoSao Paulo           SP04854-2300000000000000000000000000000000OMNNMANOEL CURSINO DA SILVA FILHO                     GESSIMARA CURSINO SANTOS                          0                     15011999                      100000                    NN7  07032024  20042024  04062024          0000L000001265000001266          0000000000                                                  0065CONTROLADOR DE ACESSO                             51741010 000                                                  000                                                  M000000037700344SPSSP         2805202142772918807007993700401SP  2103201321069302076          0
001266LUCAS VITOR SILVA SANTOS                                                        R Virginia Castiglioni                            00010               Jardim Santa Fe (ZonSao Paulo           SP05271-0600000000000000000000000000000000OMNNGENILDO MOTA DOS SANTOS                           SANDRA REGINA DA SILVA                            0                     14051998                      100000                    NN7  11032024  24042024  08062024          0000L000001266000001267          0000000000                                                  0033AUXILIAR DE SERVICOS GERAIS                       51342510 000                                                  000                                                  M000000453621703SPSSP         1302201355023607844001492000444SP  0411201613161851942          0
001267ANOBERTO DE SOUZA FERREIRA                                                      R Itajubaquara                                    00370               Paraisopolis        Sao Paulo           SP05661-0500000000000000000000000000000000OMNNANTONIO FERREIRA DA SILVA                         MARIA JURACI DE SOUZA                             0                     19051971                      100000                    NN6  11032024  24042024  08062024          0000L000001267000001268          0000000000                                                  0064AUXILIAR DE LIMPEZA                               51432010 000                                                  000                                                  M000000248705350SPSSP         2207202228218020802282180200802SP          12393684656          0
001268ANA PAULA DA SILVA GONCALVES                                                    R Itapira                                         00176CASA 3 FUNDOS  Jardim Maria ApareciGuarulhos           SP07134-2100000000000000000000000000000000OFNNFERNANDO DA SILVA                                 ROSA MARIA RUFINO DA SILVA                        0                     09051983                      100000                    NN4  11032024  24042024  08062024          0000L000001268000001269          0000000000                                                  0064AUXILIAR DE LIMPEZA                               51432010 000                                                  000                                                  M000000457268827SPSSP         3001201222945104881229451004881SP          16140941432          0
001269ANA PAULA DOS SANTOS                                                            R VIELA MEXERICO                                  00024CASA 02        JARDIM SANTA EMILIA Guarulhos           SP07132-5510000000000000000000000000000000OFNN                                                  MARIA JUDITE DOS SANTOS                           0                     04041973                      100000                    NN4  12032024  25042024  09062024          0000L000001269000001270          0000000000                                                  0064AUXILIAR DE LIMPEZA                               51432010 000                                                  000                                                  M000000579389674SPSSP         2912202230521288843002206200271SP  0604200016090576256          0
001270ELIAS RIBEIRO DOS SANTOS                                                        AV Diogo da Costa Tavares                         00079CS 02          Jardim Margarida    Sao Paulo           SP08191-0000000000000000000000000000000000OMNNJOAQUIM RIBEIRO DOS SANTOS                        DENAIR BIRAL DOS SANTOS                           0                     24091969                      100000                    NN6  19032024  02052024  16062024          0000L000001270000001271          0000000000                                                  0064AUXILIAR DE LIMPEZA                               51432010 000                                                  000                                                  M000000227962655SPSSP         2103202211805115812001529700132SP  1009201512325328262          0
001272LAINE VIANA RODRIGUES                                                           R Harry Danhenberg                                01340               Vila Carmosina      Sao Paulo           SP08270-0100000000000000000000000000000000OFNNJAIR RODRIGUES                                    LEOSANE GOMES VIANA                               0                     04041994                      100000                    NN4  18032024  01052024  15062024          0000L000001272000001273          0000000000                                                  0064AUXILIAR DE LIMPEZA                               51432010 000                                                  000                                                  M000000440883635SPSSP         1802201945841701851008966100371SP  2305201221013540117          0
